{
  "contractName": "IOToken",
  "abi": [
    {
      "inputs": [],
      "stateMutability": "nonpayable",
      "type": "constructor"
    },
    {
      "anonymous": false,
      "inputs": [
        {
          "indexed": true,
          "internalType": "address",
          "name": "owner",
          "type": "address"
        },
        {
          "indexed": true,
          "internalType": "address",
          "name": "spender",
          "type": "address"
        },
        {
          "indexed": false,
          "internalType": "uint256",
          "name": "value",
          "type": "uint256"
        }
      ],
      "name": "Approval",
      "type": "event"
    },
    {
      "anonymous": false,
      "inputs": [
        {
          "indexed": true,
          "internalType": "address",
          "name": "previousOwner",
          "type": "address"
        },
        {
          "indexed": true,
          "internalType": "address",
          "name": "newOwner",
          "type": "address"
        }
      ],
      "name": "OwnershipTransferred",
      "type": "event"
    },
    {
      "anonymous": false,
      "inputs": [
        {
          "indexed": false,
          "internalType": "address",
          "name": "account",
          "type": "address"
        }
      ],
      "name": "Paused",
      "type": "event"
    },
    {
      "anonymous": false,
      "inputs": [
        {
          "indexed": false,
          "internalType": "uint256",
          "name": "id",
          "type": "uint256"
        }
      ],
      "name": "Snapshot",
      "type": "event"
    },
    {
      "anonymous": false,
      "inputs": [
        {
          "indexed": true,
          "internalType": "address",
          "name": "from",
          "type": "address"
        },
        {
          "indexed": true,
          "internalType": "address",
          "name": "to",
          "type": "address"
        },
        {
          "indexed": false,
          "internalType": "uint256",
          "name": "value",
          "type": "uint256"
        }
      ],
      "name": "Transfer",
      "type": "event"
    },
    {
      "anonymous": false,
      "inputs": [
        {
          "indexed": false,
          "internalType": "address",
          "name": "account",
          "type": "address"
        }
      ],
      "name": "Unpaused",
      "type": "event"
    },
    {
      "inputs": [
        {
          "internalType": "address",
          "name": "account",
          "type": "address"
        },
        {
          "internalType": "uint256",
          "name": "snapshotId",
          "type": "uint256"
        }
      ],
      "name": "balanceOfAt",
      "outputs": [
        {
          "internalType": "uint256",
          "name": "",
          "type": "uint256"
        }
      ],
      "stateMutability": "view",
      "type": "function",
      "constant": true
    },
    {
      "inputs": [
        {
          "internalType": "uint256",
          "name": "amount",
          "type": "uint256"
        }
      ],
      "name": "burn",
      "outputs": [],
      "stateMutability": "nonpayable",
      "type": "function"
    },
    {
      "inputs": [
        {
          "internalType": "address",
          "name": "account",
          "type": "address"
        },
        {
          "internalType": "uint256",
          "name": "amount",
          "type": "uint256"
        }
      ],
      "name": "burnFrom",
      "outputs": [],
      "stateMutability": "nonpayable",
      "type": "function"
    },
    {
      "inputs": [],
      "name": "owner",
      "outputs": [
        {
          "internalType": "address",
          "name": "",
          "type": "address"
        }
      ],
      "stateMutability": "view",
      "type": "function",
      "constant": true
    },
    {
      "inputs": [],
      "name": "paused",
      "outputs": [
        {
          "internalType": "bool",
          "name": "",
          "type": "bool"
        }
      ],
      "stateMutability": "view",
      "type": "function",
      "constant": true
    },
    {
      "inputs": [],
      "name": "renounceOwnership",
      "outputs": [],
      "stateMutability": "nonpayable",
      "type": "function"
    },
    {
      "inputs": [
        {
          "internalType": "uint256",
          "name": "snapshotId",
          "type": "uint256"
        }
      ],
      "name": "totalSupplyAt",
      "outputs": [
        {
          "internalType": "uint256",
          "name": "",
          "type": "uint256"
        }
      ],
      "stateMutability": "view",
      "type": "function",
      "constant": true
    },
    {
      "inputs": [
        {
          "internalType": "address",
          "name": "newOwner",
          "type": "address"
        }
      ],
      "name": "transferOwnership",
      "outputs": [],
      "stateMutability": "nonpayable",
      "type": "function"
    },
    {
      "inputs": [
        {
          "internalType": "address",
          "name": "to",
          "type": "address"
        },
        {
          "internalType": "uint256",
          "name": "amount",
          "type": "uint256"
        }
      ],
      "name": "mint",
      "outputs": [],
      "stateMutability": "nonpayable",
      "type": "function"
    },
    {
      "inputs": [],
      "name": "name",
      "outputs": [
        {
          "internalType": "string",
          "name": "",
          "type": "string"
        }
      ],
      "stateMutability": "view",
      "type": "function",
      "constant": true
    },
    {
      "inputs": [],
      "name": "symbol",
      "outputs": [
        {
          "internalType": "string",
          "name": "",
          "type": "string"
        }
      ],
      "stateMutability": "view",
      "type": "function",
      "constant": true
    },
    {
      "inputs": [],
      "name": "decimals",
      "outputs": [
        {
          "internalType": "uint8",
          "name": "",
          "type": "uint8"
        }
      ],
      "stateMutability": "view",
      "type": "function",
      "constant": true
    },
    {
      "inputs": [],
      "name": "totalSupply",
      "outputs": [
        {
          "internalType": "uint256",
          "name": "",
          "type": "uint256"
        }
      ],
      "stateMutability": "view",
      "type": "function",
      "constant": true
    },
    {
      "inputs": [
        {
          "internalType": "address",
          "name": "account",
          "type": "address"
        }
      ],
      "name": "balanceOf",
      "outputs": [
        {
          "internalType": "uint256",
          "name": "",
          "type": "uint256"
        }
      ],
      "stateMutability": "view",
      "type": "function",
      "constant": true
    },
    {
      "inputs": [
        {
          "internalType": "address",
          "name": "recipient",
          "type": "address"
        },
        {
          "internalType": "uint256",
          "name": "amount",
          "type": "uint256"
        }
      ],
      "name": "transfer",
      "outputs": [
        {
          "internalType": "bool",
          "name": "",
          "type": "bool"
        }
      ],
      "stateMutability": "nonpayable",
      "type": "function"
    },
    {
      "inputs": [
        {
          "internalType": "address",
          "name": "owner",
          "type": "address"
        },
        {
          "internalType": "address",
          "name": "spender",
          "type": "address"
        }
      ],
      "name": "allowance",
      "outputs": [
        {
          "internalType": "uint256",
          "name": "",
          "type": "uint256"
        }
      ],
      "stateMutability": "view",
      "type": "function",
      "constant": true
    },
    {
      "inputs": [
        {
          "internalType": "address",
          "name": "spender",
          "type": "address"
        },
        {
          "internalType": "uint256",
          "name": "amount",
          "type": "uint256"
        }
      ],
      "name": "approve",
      "outputs": [
        {
          "internalType": "bool",
          "name": "",
          "type": "bool"
        }
      ],
      "stateMutability": "nonpayable",
      "type": "function"
    },
    {
      "inputs": [
        {
          "internalType": "address",
          "name": "sender",
          "type": "address"
        },
        {
          "internalType": "address",
          "name": "recipient",
          "type": "address"
        },
        {
          "internalType": "uint256",
          "name": "amount",
          "type": "uint256"
        }
      ],
      "name": "transferFrom",
      "outputs": [
        {
          "internalType": "bool",
          "name": "",
          "type": "bool"
        }
      ],
      "stateMutability": "nonpayable",
      "type": "function"
    },
    {
      "inputs": [
        {
          "internalType": "address",
          "name": "spender",
          "type": "address"
        },
        {
          "internalType": "uint256",
          "name": "addedValue",
          "type": "uint256"
        }
      ],
      "name": "increaseAllowance",
      "outputs": [
        {
          "internalType": "bool",
          "name": "",
          "type": "bool"
        }
      ],
      "stateMutability": "nonpayable",
      "type": "function"
    },
    {
      "inputs": [
        {
          "internalType": "address",
          "name": "spender",
          "type": "address"
        },
        {
          "internalType": "uint256",
          "name": "subtractedValue",
          "type": "uint256"
        }
      ],
      "name": "decreaseAllowance",
      "outputs": [
        {
          "internalType": "bool",
          "name": "",
          "type": "bool"
        }
      ],
      "stateMutability": "nonpayable",
      "type": "function"
    }
  ],
  "bytecode": "0x60806040526040518060400160405280600781526020017f494f546f6b656e00000000000000000000000000000000000000000000000000815250600c90805190602001906200005192919062000863565b506040518060400160405280600481526020017f5046494f00000000000000000000000000000000000000000000000000000000815250600d90805190602001906200009f92919062000863565b50620000b06200029560201b60201c565b6012620000be919062000a9c565b69d3c21bcecceda1000000620000d5919062000bd9565b600e55348015620000e557600080fd5b50600c8054620000f59062000c8c565b80601f0160208091040260200160405190810160405280929190818152602001828054620001239062000c8c565b8015620001745780601f10620001485761010080835404028352916020019162000174565b820191906000526020600020905b8154815290600101906020018083116200015657829003601f168201915b5050505050600d8054620001889062000c8c565b80601f0160208091040260200160405190810160405280929190818152602001828054620001b69062000c8c565b8015620002075780601f10620001db5761010080835404028352916020019162000207565b820191906000526020600020905b815481529060010190602001808311620001e957829003601f168201915b505050505081600390805190602001906200022492919062000863565b5080600490805190602001906200023d92919062000863565b50505062000260620002546200029e60201b60201c565b620002a660201b60201c565b6000600960146101000a81548160ff0219169083151502179055506200028f33600e546200036c60201b60201c565b62000d7f565b60006012905090565b600033905090565b6000600960009054906101000a900473ffffffffffffffffffffffffffffffffffffffff16905081600960006101000a81548173ffffffffffffffffffffffffffffffffffffffff021916908373ffffffffffffffffffffffffffffffffffffffff1602179055508173ffffffffffffffffffffffffffffffffffffffff168173ffffffffffffffffffffffffffffffffffffffff167f8be0079c531659141344cd1fd0a4f28419497f9722a3daafe3b4186f6b6457e060405160405180910390a35050565b600073ffffffffffffffffffffffffffffffffffffffff168273ffffffffffffffffffffffffffffffffffffffff161415620003df576040517f08c379a0000000000000000000000000000000000000000000000000000000008152600401620003d69062000994565b60405180910390fd5b620003f360008383620004d260201b60201c565b80600e6000828254620004079190620009e4565b9250508190555080600a60008473ffffffffffffffffffffffffffffffffffffffff1673ffffffffffffffffffffffffffffffffffffffff16815260200190815260200160002060008282546200045f9190620009e4565b925050819055508173ffffffffffffffffffffffffffffffffffffffff16600073ffffffffffffffffffffffffffffffffffffffff167fddf252ad1be2c89b69c2b068fc378daa952ba7f163c4a11628f55a4df523b3ef83604051620004c69190620009b6565b60405180910390a35050565b620004e26200054260201b60201c565b1562000525576040517f08c379a00000000000000000000000000000000000000000000000000000000081526004016200051c9062000972565b60405180910390fd5b6200053d8383836200055960201b62000c5c1760201c565b505050565b6000600960149054906101000a900460ff16905090565b620005718383836200065460201b62000d161760201c565b600073ffffffffffffffffffffffffffffffffffffffff168373ffffffffffffffffffffffffffffffffffffffff161415620005ce57620005b8826200065960201b60201c565b620005c8620006bc60201b60201c565b6200064f565b600073ffffffffffffffffffffffffffffffffffffffff168273ffffffffffffffffffffffffffffffffffffffff1614156200062b5762000615836200065960201b60201c565b62000625620006bc60201b60201c565b6200064e565b6200063c836200065960201b60201c565b6200064d826200065960201b60201c565b5b5b505050565b505050565b620006b9600560008373ffffffffffffffffffffffffffffffffffffffff1673ffffffffffffffffffffffffffffffffffffffff168152602001908152602001600020620006ad83620006e060201b60201c565b6200072960201b60201c565b50565b620006de6006620006d2620007b560201b60201c565b6200072960201b60201c565b565b6000600a60008373ffffffffffffffffffffffffffffffffffffffff1673ffffffffffffffffffffffffffffffffffffffff168152602001908152602001600020549050919050565b60006200073b620007bf60201b60201c565b9050806200075284600001620007dd60201b60201c565b1015620007b05782600001819080600181540180825580915050600190039060005260206000200160009091909190915055826001018290806001815401808255809150506001900390600052602060002001600090919091909150555b505050565b6000600e54905090565b6000620007d860086200085560201b62000d1b1760201c565b905090565b60008082805490501415620007f6576000905062000850565b81600183805490506200080a919062000c3a565b8154811062000842577f4e487b7100000000000000000000000000000000000000000000000000000000600052603260045260246000fd5b906000526020600020015490505b919050565b600081600001549050919050565b828054620008719062000c8c565b90600052602060002090601f016020900481019282620008955760008555620008e1565b82601f10620008b057805160ff1916838001178555620008e1565b82800160010185558215620008e1579182015b82811115620008e0578251825591602001919060010190620008c3565b5b509050620008f09190620008f4565b5090565b5b808211156200090f576000816000905550600101620008f5565b5090565b600062000922601083620009d3565b91506200092f8262000d2d565b602082019050919050565b600062000949601f83620009d3565b9150620009568262000d56565b602082019050919050565b6200096c8162000c75565b82525050565b600060208201905081810360008301526200098d8162000913565b9050919050565b60006020820190508181036000830152620009af816200093a565b9050919050565b6000602082019050620009cd600083018462000961565b92915050565b600082825260208201905092915050565b6000620009f18262000c75565b9150620009fe8362000c75565b9250827fffffffffffffffffffffffffffffffffffffffffffffffffffffffffffffffff0382111562000a365762000a3562000cc2565b5b828201905092915050565b6000808291508390505b600185111562000a935780860481111562000a6b5762000a6a62000cc2565b5b600185161562000a7b5780820291505b808102905062000a8b8562000d20565b945062000a4b565b94509492505050565b600062000aa98262000c75565b915062000ab68362000c7f565b925062000ae57fffffffffffffffffffffffffffffffffffffffffffffffffffffffffffffffff848462000aed565b905092915050565b60008262000aff576001905062000bd2565b8162000b0f576000905062000bd2565b816001811462000b28576002811462000b335762000b69565b600191505062000bd2565b60ff84111562000b485762000b4762000cc2565b5b8360020a91508482111562000b625762000b6162000cc2565b5b5062000bd2565b5060208310610133831016604e8410600b841016171562000ba35782820a90508381111562000b9d5762000b9c62000cc2565b5b62000bd2565b62000bb2848484600162000a41565b9250905081840481111562000bcc5762000bcb62000cc2565b5b81810290505b9392505050565b600062000be68262000c75565b915062000bf38362000c75565b9250817fffffffffffffffffffffffffffffffffffffffffffffffffffffffffffffffff048311821515161562000c2f5762000c2e62000cc2565b5b828202905092915050565b600062000c478262000c75565b915062000c548362000c75565b92508282101562000c6a5762000c6962000cc2565b5b828203905092915050565b6000819050919050565b600060ff82169050919050565b6000600282049050600182168062000ca557607f821691505b6020821081141562000cbc5762000cbb62000cf1565b5b50919050565b7f4e487b7100000000000000000000000000000000000000000000000000000000600052601160045260246000fd5b7f4e487b7100000000000000000000000000000000000000000000000000000000600052602260045260246000fd5b60008160011c9050919050565b7f5061757361626c653a2070617573656400000000000000000000000000000000600082015250565b7f45524332303a206d696e7420746f20746865207a65726f206164647265737300600082015250565b6127308062000d8f6000396000f3fe608060405234801561001057600080fd5b506004361061012c5760003560e01c806370a08231116100ad578063981b24d011610071578063981b24d014610333578063a457c2d714610363578063a9059cbb14610393578063dd62ed3e146103c3578063f2fde38b146103f35761012c565b806370a08231146102a1578063715018a6146102d157806379cc6790146102db5780638da5cb5b146102f757806395d89b41146103155761012c565b806339509351116100f457806339509351146101eb57806340c10f191461021b57806342966c68146102375780634ee2cd7e146102535780635c975abb146102835761012c565b806306fdde0314610131578063095ea7b31461014f57806318160ddd1461017f57806323b872dd1461019d578063313ce567146101cd575b600080fd5b61013961040f565b6040516101469190611de2565b60405180910390f35b61016960048036038101906101649190611aa2565b6104a1565b6040516101769190611dc7565b60405180910390f35b6101876104bf565b6040516101949190612004565b60405180910390f35b6101b760048036038101906101b29190611a53565b6104c9565b6040516101c49190611dc7565b60405180910390f35b6101d56105c1565b6040516101e2919061201f565b60405180910390f35b61020560048036038101906102009190611aa2565b6105ca565b6040516102129190611dc7565b60405180910390f35b61023560048036038101906102309190611aa2565b610676565b005b610251600480360381019061024c9190611ade565b610700565b005b61026d60048036038101906102689190611aa2565b610714565b60405161027a9190612004565b60405180910390f35b61028b610784565b6040516102989190611dc7565b60405180910390f35b6102bb60048036038101906102b691906119ee565b61079b565b6040516102c89190612004565b60405180910390f35b6102d96107e4565b005b6102f560048036038101906102f09190611aa2565b61086c565b005b6102ff6108e7565b60405161030c9190611dac565b60405180910390f35b61031d610911565b60405161032a9190611de2565b60405180910390f35b61034d60048036038101906103489190611ade565b6109a3565b60405161035a9190612004565b60405180910390f35b61037d60048036038101906103789190611aa2565b6109d4565b60405161038a9190611dc7565b60405180910390f35b6103ad60048036038101906103a89190611aa2565b610abf565b6040516103ba9190611dc7565b60405180910390f35b6103dd60048036038101906103d89190611a17565b610add565b6040516103ea9190612004565b60405180910390f35b61040d600480360381019061040891906119ee565b610b64565b005b6060600c805461041e90612199565b80601f016020809104026020016040519081016040528092919081815260200182805461044a90612199565b80156104975780601f1061046c57610100808354040283529160200191610497565b820191906000526020600020905b81548152906001019060200180831161047a57829003601f168201915b5050505050905090565b60006104b56104ae610d29565b8484610d31565b6001905092915050565b6000600e54905090565b60006104d6848484610efc565b6000600b60008673ffffffffffffffffffffffffffffffffffffffff1673ffffffffffffffffffffffffffffffffffffffff1681526020019081526020016000206000610521610d29565b73ffffffffffffffffffffffffffffffffffffffff1673ffffffffffffffffffffffffffffffffffffffff168152602001908152602001600020549050828110156105a1576040517f08c379a000000000000000000000000000000000000000000000000000000000815260040161059890611ee4565b60405180910390fd5b6105b5856105ad610d29565b858403610d31565b60019150509392505050565b60006012905090565b600061066c6105d7610d29565b8484600b60006105e5610d29565b73ffffffffffffffffffffffffffffffffffffffff1673ffffffffffffffffffffffffffffffffffffffff16815260200190815260200160002060008873ffffffffffffffffffffffffffffffffffffffff1673ffffffffffffffffffffffffffffffffffffffff168152602001908152602001600020546106679190612056565b610d31565b6001905092915050565b61067e610d29565b73ffffffffffffffffffffffffffffffffffffffff1661069c6108e7565b73ffffffffffffffffffffffffffffffffffffffff16146106f2576040517f08c379a00000000000000000000000000000000000000000000000000000000081526004016106e990611f04565b60405180910390fd5b6106fc8282611175565b5050565b61071161070b610d29565b826112ca565b50565b600080600061076184600560008873ffffffffffffffffffffffffffffffffffffffff1673ffffffffffffffffffffffffffffffffffffffff168152602001908152602001600020611497565b9150915081610778576107738561079b565b61077a565b805b9250505092915050565b6000600960149054906101000a900460ff16905090565b6000600a60008373ffffffffffffffffffffffffffffffffffffffff1673ffffffffffffffffffffffffffffffffffffffff168152602001908152602001600020549050919050565b6107ec610d29565b73ffffffffffffffffffffffffffffffffffffffff1661080a6108e7565b73ffffffffffffffffffffffffffffffffffffffff1614610860576040517f08c379a000000000000000000000000000000000000000000000000000000000815260040161085790611f04565b60405180910390fd5b61086a60006115b3565b565b600061087f8361087a610d29565b610add565b9050818110156108c4576040517f08c379a00000000000000000000000000000000000000000000000000000000081526004016108bb90611f24565b60405180910390fd5b6108d8836108d0610d29565b848403610d31565b6108e283836112ca565b505050565b6000600960009054906101000a900473ffffffffffffffffffffffffffffffffffffffff16905090565b6060600d805461092090612199565b80601f016020809104026020016040519081016040528092919081815260200182805461094c90612199565b80156109995780601f1061096e57610100808354040283529160200191610999565b820191906000526020600020905b81548152906001019060200180831161097c57829003601f168201915b5050505050905090565b60008060006109b3846006611497565b91509150816109c9576109c46104bf565b6109cb565b805b92505050919050565b600080600b60006109e3610d29565b73ffffffffffffffffffffffffffffffffffffffff1673ffffffffffffffffffffffffffffffffffffffff16815260200190815260200160002060008573ffffffffffffffffffffffffffffffffffffffff1673ffffffffffffffffffffffffffffffffffffffff16815260200190815260200160002054905082811015610aa0576040517f08c379a0000000000000000000000000000000000000000000000000000000008152600401610a9790611fc4565b60405180910390fd5b610ab4610aab610d29565b85858403610d31565b600191505092915050565b6000610ad3610acc610d29565b8484610efc565b6001905092915050565b6000600b60008473ffffffffffffffffffffffffffffffffffffffff1673ffffffffffffffffffffffffffffffffffffffff16815260200190815260200160002060008373ffffffffffffffffffffffffffffffffffffffff1673ffffffffffffffffffffffffffffffffffffffff16815260200190815260200160002054905092915050565b610b6c610d29565b73ffffffffffffffffffffffffffffffffffffffff16610b8a6108e7565b73ffffffffffffffffffffffffffffffffffffffff1614610be0576040517f08c379a0000000000000000000000000000000000000000000000000000000008152600401610bd790611f04565b60405180910390fd5b600073ffffffffffffffffffffffffffffffffffffffff168173ffffffffffffffffffffffffffffffffffffffff161415610c50576040517f08c379a0000000000000000000000000000000000000000000000000000000008152600401610c4790611e64565b60405180910390fd5b610c59816115b3565b50565b610c67838383610d16565b600073ffffffffffffffffffffffffffffffffffffffff168373ffffffffffffffffffffffffffffffffffffffff161415610cb257610ca582611679565b610cad6116cc565b610d11565b600073ffffffffffffffffffffffffffffffffffffffff168273ffffffffffffffffffffffffffffffffffffffff161415610cfd57610cf083611679565b610cf86116cc565b610d10565b610d0683611679565b610d0f82611679565b5b5b505050565b505050565b600081600001549050919050565b600033905090565b600073ffffffffffffffffffffffffffffffffffffffff168373ffffffffffffffffffffffffffffffffffffffff161415610da1576040517f08c379a0000000000000000000000000000000000000000000000000000000008152600401610d9890611f84565b60405180910390fd5b600073ffffffffffffffffffffffffffffffffffffffff168273ffffffffffffffffffffffffffffffffffffffff161415610e11576040517f08c379a0000000000000000000000000000000000000000000000000000000008152600401610e0890611e84565b60405180910390fd5b80600b60008573ffffffffffffffffffffffffffffffffffffffff1673ffffffffffffffffffffffffffffffffffffffff16815260200190815260200160002060008473ffffffffffffffffffffffffffffffffffffffff1673ffffffffffffffffffffffffffffffffffffffff168152602001908152602001600020819055508173ffffffffffffffffffffffffffffffffffffffff168373ffffffffffffffffffffffffffffffffffffffff167f8c5be1e5ebec7d5bd14f71427d1e84f3dd0314c0f7b2291e5b200ac8c7c3b92583604051610eef9190612004565b60405180910390a3505050565b600073ffffffffffffffffffffffffffffffffffffffff168373ffffffffffffffffffffffffffffffffffffffff161415610f6c576040517f08c379a0000000000000000000000000000000000000000000000000000000008152600401610f6390611f64565b60405180910390fd5b600073ffffffffffffffffffffffffffffffffffffffff168273ffffffffffffffffffffffffffffffffffffffff161415610fdc576040517f08c379a0000000000000000000000000000000000000000000000000000000008152600401610fd390611e24565b60405180910390fd5b610fe78383836116e0565b6000600a60008573ffffffffffffffffffffffffffffffffffffffff1673ffffffffffffffffffffffffffffffffffffffff1681526020019081526020016000205490508181101561106e576040517f08c379a000000000000000000000000000000000000000000000000000000000815260040161106590611ea4565b60405180910390fd5b818103600a60008673ffffffffffffffffffffffffffffffffffffffff1673ffffffffffffffffffffffffffffffffffffffff1681526020019081526020016000208190555081600a60008573ffffffffffffffffffffffffffffffffffffffff1673ffffffffffffffffffffffffffffffffffffffff16815260200190815260200160002060008282546111039190612056565b925050819055508273ffffffffffffffffffffffffffffffffffffffff168473ffffffffffffffffffffffffffffffffffffffff167fddf252ad1be2c89b69c2b068fc378daa952ba7f163c4a11628f55a4df523b3ef846040516111679190612004565b60405180910390a350505050565b600073ffffffffffffffffffffffffffffffffffffffff168273ffffffffffffffffffffffffffffffffffffffff1614156111e5576040517f08c379a00000000000000000000000000000000000000000000000000000000081526004016111dc90611fe4565b60405180910390fd5b6111f1600083836116e0565b80600e60008282546112039190612056565b9250508190555080600a60008473ffffffffffffffffffffffffffffffffffffffff1673ffffffffffffffffffffffffffffffffffffffff16815260200190815260200160002060008282546112599190612056565b925050819055508173ffffffffffffffffffffffffffffffffffffffff16600073ffffffffffffffffffffffffffffffffffffffff167fddf252ad1be2c89b69c2b068fc378daa952ba7f163c4a11628f55a4df523b3ef836040516112be9190612004565b60405180910390a35050565b600073ffffffffffffffffffffffffffffffffffffffff168273ffffffffffffffffffffffffffffffffffffffff16141561133a576040517f08c379a000000000000000000000000000000000000000000000000000000000815260040161133190611f44565b60405180910390fd5b611346826000836116e0565b6000600a60008473ffffffffffffffffffffffffffffffffffffffff1673ffffffffffffffffffffffffffffffffffffffff168152602001908152602001600020549050818110156113cd576040517f08c379a00000000000000000000000000000000000000000000000000000000081526004016113c490611e44565b60405180910390fd5b818103600a60008573ffffffffffffffffffffffffffffffffffffffff1673ffffffffffffffffffffffffffffffffffffffff1681526020019081526020016000208190555081600e600082825461142591906120dd565b92505081905550600073ffffffffffffffffffffffffffffffffffffffff168373ffffffffffffffffffffffffffffffffffffffff167fddf252ad1be2c89b69c2b068fc378daa952ba7f163c4a11628f55a4df523b3ef8460405161148a9190612004565b60405180910390a3505050565b600080600084116114dd576040517f08c379a00000000000000000000000000000000000000000000000000000000081526004016114d490611fa4565b60405180910390fd5b6114e5611738565b841115611527576040517f08c379a000000000000000000000000000000000000000000000000000000000815260040161151e90611e04565b60405180910390fd5b600061153f858560000161174990919063ffffffff16565b9050836000018054905081141561155d5760008092509250506115ac565b600184600101828154811061159b577f4e487b7100000000000000000000000000000000000000000000000000000000600052603260045260246000fd5b906000526020600020015492509250505b9250929050565b6000600960009054906101000a900473ffffffffffffffffffffffffffffffffffffffff16905081600960006101000a81548173ffffffffffffffffffffffffffffffffffffffff021916908373ffffffffffffffffffffffffffffffffffffffff1602179055508173ffffffffffffffffffffffffffffffffffffffff168173ffffffffffffffffffffffffffffffffffffffff167f8be0079c531659141344cd1fd0a4f28419497f9722a3daafe3b4186f6b6457e060405160405180910390a35050565b6116c9600560008373ffffffffffffffffffffffffffffffffffffffff1673ffffffffffffffffffffffffffffffffffffffff1681526020019081526020016000206116c48361079b565b61186f565b50565b6116de60066116d96104bf565b61186f565b565b6116e8610784565b15611728576040517f08c379a000000000000000000000000000000000000000000000000000000000815260040161171f90611ec4565b60405180910390fd5b611733838383610c5c565b505050565b60006117446008610d1b565b905090565b600080838054905014156117605760009050611869565b600080848054905090505b808210156117ea57600061177f83836118ea565b9050848682815481106117bb577f4e487b7100000000000000000000000000000000000000000000000000000000600052603260045260246000fd5b906000526020600020015411156117d4578091506117e4565b6001816117e19190612056565b92505b5061176b565b6000821180156118485750838560018461180491906120dd565b8154811061183b577f4e487b7100000000000000000000000000000000000000000000000000000000600052603260045260246000fd5b9060005260206000200154145b156118635760018261185a91906120dd565b92505050611869565b81925050505b92915050565b6000611879611738565b90508061188884600001611951565b10156118e55782600001819080600181540180825580915050600190039060005260206000200160009091909190915055826001018290806001815401808255809150506001900390600052602060002001600090919091909150555b505050565b6000600280836118fa91906121cb565b60028561190791906121cb565b6119119190612056565b61191b91906120ac565b60028361192891906120ac565b60028561193591906120ac565b61193f9190612056565b6119499190612056565b905092915050565b6000808280549050141561196857600090506119bf565b816001838054905061197a91906120dd565b815481106119b1577f4e487b7100000000000000000000000000000000000000000000000000000000600052603260045260246000fd5b906000526020600020015490505b919050565b6000813590506119d3816126cc565b92915050565b6000813590506119e8816126e3565b92915050565b600060208284031215611a0057600080fd5b6000611a0e848285016119c4565b91505092915050565b60008060408385031215611a2a57600080fd5b6000611a38858286016119c4565b9250506020611a49858286016119c4565b9150509250929050565b600080600060608486031215611a6857600080fd5b6000611a76868287016119c4565b9350506020611a87868287016119c4565b9250506040611a98868287016119d9565b9150509250925092565b60008060408385031215611ab557600080fd5b6000611ac3858286016119c4565b9250506020611ad4858286016119d9565b9150509250929050565b600060208284031215611af057600080fd5b6000611afe848285016119d9565b91505092915050565b611b1081612111565b82525050565b611b1f81612123565b82525050565b6000611b308261203a565b611b3a8185612045565b9350611b4a818560208601612166565b611b5381612289565b840191505092915050565b6000611b6b601d83612045565b9150611b768261229a565b602082019050919050565b6000611b8e602383612045565b9150611b99826122c3565b604082019050919050565b6000611bb1602283612045565b9150611bbc82612312565b604082019050919050565b6000611bd4602683612045565b9150611bdf82612361565b604082019050919050565b6000611bf7602283612045565b9150611c02826123b0565b604082019050919050565b6000611c1a602683612045565b9150611c25826123ff565b604082019050919050565b6000611c3d601083612045565b9150611c488261244e565b602082019050919050565b6000611c60602883612045565b9150611c6b82612477565b604082019050919050565b6000611c83602083612045565b9150611c8e826124c6565b602082019050919050565b6000611ca6602483612045565b9150611cb1826124ef565b604082019050919050565b6000611cc9602183612045565b9150611cd48261253e565b604082019050919050565b6000611cec602583612045565b9150611cf78261258d565b604082019050919050565b6000611d0f602483612045565b9150611d1a826125dc565b604082019050919050565b6000611d32601683612045565b9150611d3d8261262b565b602082019050919050565b6000611d55602583612045565b9150611d6082612654565b604082019050919050565b6000611d78601f83612045565b9150611d83826126a3565b602082019050919050565b611d978161214f565b82525050565b611da681612159565b82525050565b6000602082019050611dc16000830184611b07565b92915050565b6000602082019050611ddc6000830184611b16565b92915050565b60006020820190508181036000830152611dfc8184611b25565b905092915050565b60006020820190508181036000830152611e1d81611b5e565b9050919050565b60006020820190508181036000830152611e3d81611b81565b9050919050565b60006020820190508181036000830152611e5d81611ba4565b9050919050565b60006020820190508181036000830152611e7d81611bc7565b9050919050565b60006020820190508181036000830152611e9d81611bea565b9050919050565b60006020820190508181036000830152611ebd81611c0d565b9050919050565b60006020820190508181036000830152611edd81611c30565b9050919050565b60006020820190508181036000830152611efd81611c53565b9050919050565b60006020820190508181036000830152611f1d81611c76565b9050919050565b60006020820190508181036000830152611f3d81611c99565b9050919050565b60006020820190508181036000830152611f5d81611cbc565b9050919050565b60006020820190508181036000830152611f7d81611cdf565b9050919050565b60006020820190508181036000830152611f9d81611d02565b9050919050565b60006020820190508181036000830152611fbd81611d25565b9050919050565b60006020820190508181036000830152611fdd81611d48565b9050919050565b60006020820190508181036000830152611ffd81611d6b565b9050919050565b60006020820190506120196000830184611d8e565b92915050565b60006020820190506120346000830184611d9d565b92915050565b600081519050919050565b600082825260208201905092915050565b60006120618261214f565b915061206c8361214f565b9250827fffffffffffffffffffffffffffffffffffffffffffffffffffffffffffffffff038211156120a1576120a06121fc565b5b828201905092915050565b60006120b78261214f565b91506120c28361214f565b9250826120d2576120d161222b565b5b828204905092915050565b60006120e88261214f565b91506120f38361214f565b925082821015612106576121056121fc565b5b828203905092915050565b600061211c8261212f565b9050919050565b60008115159050919050565b600073ffffffffffffffffffffffffffffffffffffffff82169050919050565b6000819050919050565b600060ff82169050919050565b60005b83811015612184578082015181840152602081019050612169565b83811115612193576000848401525b50505050565b600060028204905060018216806121b157607f821691505b602082108114156121c5576121c461225a565b5b50919050565b60006121d68261214f565b91506121e18361214f565b9250826121f1576121f061222b565b5b828206905092915050565b7f4e487b7100000000000000000000000000000000000000000000000000000000600052601160045260246000fd5b7f4e487b7100000000000000000000000000000000000000000000000000000000600052601260045260246000fd5b7f4e487b7100000000000000000000000000000000000000000000000000000000600052602260045260246000fd5b6000601f19601f8301169050919050565b7f4552433230536e617073686f743a206e6f6e6578697374656e74206964000000600082015250565b7f45524332303a207472616e7366657220746f20746865207a65726f206164647260008201527f6573730000000000000000000000000000000000000000000000000000000000602082015250565b7f45524332303a206275726e20616d6f756e7420657863656564732062616c616e60008201527f6365000000000000000000000000000000000000000000000000000000000000602082015250565b7f4f776e61626c653a206e6577206f776e657220697320746865207a65726f206160008201527f6464726573730000000000000000000000000000000000000000000000000000602082015250565b7f45524332303a20617070726f766520746f20746865207a65726f20616464726560008201527f7373000000000000000000000000000000000000000000000000000000000000602082015250565b7f45524332303a207472616e7366657220616d6f756e742065786365656473206260008201527f616c616e63650000000000000000000000000000000000000000000000000000602082015250565b7f5061757361626c653a2070617573656400000000000000000000000000000000600082015250565b7f45524332303a207472616e7366657220616d6f756e742065786365656473206160008201527f6c6c6f77616e6365000000000000000000000000000000000000000000000000602082015250565b7f4f776e61626c653a2063616c6c6572206973206e6f7420746865206f776e6572600082015250565b7f45524332303a206275726e20616d6f756e74206578636565647320616c6c6f7760008201527f616e636500000000000000000000000000000000000000000000000000000000602082015250565b7f45524332303a206275726e2066726f6d20746865207a65726f2061646472657360008201527f7300000000000000000000000000000000000000000000000000000000000000602082015250565b7f45524332303a207472616e736665722066726f6d20746865207a65726f20616460008201527f6472657373000000000000000000000000000000000000000000000000000000602082015250565b7f45524332303a20617070726f76652066726f6d20746865207a65726f2061646460008201527f7265737300000000000000000000000000000000000000000000000000000000602082015250565b7f4552433230536e617073686f743a206964206973203000000000000000000000600082015250565b7f45524332303a2064656372656173656420616c6c6f77616e63652062656c6f7760008201527f207a65726f000000000000000000000000000000000000000000000000000000602082015250565b7f45524332303a206d696e7420746f20746865207a65726f206164647265737300600082015250565b6126d581612111565b81146126e057600080fd5b50565b6126ec8161214f565b81146126f757600080fd5b5056fea264697066735822122071932e703e3cc17dccce05184734d89cdee1654235754c1ebcf764383965a7ba64736f6c63430008040033",
  "immutableReferences": {},
  "source": "// SPDX-License-Identifier: MIT\npragma solidity ^0.8.4;\n\nimport \"@openzeppelin/contracts/token/ERC20/IERC20.sol\";\nimport \"@openzeppelin/contracts/token/ERC20/extensions/IERC20Metadata.sol\";\nimport \"@openzeppelin/contracts/token/ERC20/extensions/ERC20Burnable.sol\";\nimport \"@openzeppelin/contracts/token/ERC20/extensions/ERC20Snapshot.sol\";\nimport \"@openzeppelin/contracts/utils/Context.sol\";\nimport \"@openzeppelin/contracts/access/Ownable.sol\";\nimport \"@openzeppelin/contracts/security/Pausable.sol\";\n\n/**\n * Implementation of the {IERC20} interface.\n *This implementation is agnostic to the way tokens are created. This means\n * that a supply mechanism has to be added in a derived contract using {_mint}.\n * For a generic mechanism see {ERC20PresetMinterPauser}.\n *\n * TIP: For a detailed writeup see our guide\n * https://forum.zeppelin.solutions/t/how-to-implement-erc20-supply-mechanisms/226[How\n * to implement supply mechanisms].\n *\n * We have followed general OpenZeppelin guidelines: functions revert instead\n * of returning `false` on failure. This behavior is nonetheless conventional\n * and does not conflict with the expectations of ERC20 applications.\n *\n * Additionally, an {Approval} event is emitted on calls to {transferFrom}.\n * This allows applications to reconstruct the allowance for all accounts just\n * by listening to said events. Other implementations of the EIP may not emit\n * these events, as it isn't required by the specification.\n *\n * Finally, the non-standard {decreaseAllowance} and {increaseAllowance}\n * functions have been added to mitigate the well-known issues around setting\n * allowances. See {IERC20-approve}.\n */\ncontract IOToken is Context, IERC20, IERC20Metadata, ERC20Burnable, ERC20Snapshot, Ownable, Pausable {\n    \n    // mapping associant un adresse  un montant (soldes)\n    mapping(address => uint256) private _balances;\n    \n    // mapping listant les adresses et y associant un mapping liant une adresse  un montant allou\n    mapping(address => mapping(address => uint256)) private _allowances;\n\n    // Nom du contrat\n    string private _name= \"IOToken\";\n    // Symbole du contrat\n    string private _symbol = \"PFIO\";\n    \n    // Nombre de Jetons mis\n    uint256 private _totalSupply = 1000000000000000000000000 * 18 ** decimals();\n\n    /**\n     * @dev Sets the values for {name} and {symbol}.\n     *\n     * The default value of {decimals} is 18. To select a different value for\n     * {decimals} you should overload it.\n     *\n     * All two of these values are immutable: they can only be set once during\n     * construction.\n     */\n    constructor() ERC20(_name, _symbol) {\n        _mint(msg.sender, _totalSupply);\n    }\n\n    \n    function mint(address to, uint256 amount) public onlyOwner {\n        _mint(to, amount);\n    }\n\n    function _beforeTokenTransfer(address from, address to, uint256 amount)\n        internal\n        whenNotPaused\n        override(ERC20, ERC20Snapshot)\n    {\n        super._beforeTokenTransfer(from, to, amount);\n    }\n\n    /**\n     * @dev Returns the name of the token.\n     */\n    function name() public view virtual override(ERC20, IERC20Metadata) returns (string memory) {\n        return _name;\n    }\n    \n    /**\n     * @dev Returns the symbol of the token, usually a shorter version of the\n     * name.\n     */\n    function symbol() public view virtual override(ERC20, IERC20Metadata) returns (string memory) {\n        return _symbol;\n    }\n    \n    /**\n     * @dev Returns the number of decimals used to get its user representation.\n     * For example, if `decimals` equals `2`, a balance of `505` tokens should\n     * be displayed to a user as `5,05` (`505 / 10 ** 2`).\n     *\n     * Tokens usually opt for a value of 18, imitating the relationship between\n     * Ether and Wei. This is the value {ERC20} uses, unless this function is\n     * overridden;\n     *\n     * NOTE: This information is only used for _display_ purposes: it in\n     * no way affects any of the arithmetic of the contract, including\n     * {IERC20-balanceOf} and {IERC20-transfer}.\n     */\n    function decimals() public view virtual override(ERC20, IERC20Metadata) returns (uint8) {\n        return 18;\n    }\n\n    /**\n     * @dev See {IERC20-totalSupply}.\n     */\n    function totalSupply() public view virtual override(ERC20, IERC20) returns (uint256) {\n        return _totalSupply;\n    }\n\n    /**\n     * @dev See {IERC20-balanceOf}.\n     */\n    function balanceOf(address account) public view virtual override(ERC20, IERC20) returns (uint256) {\n        return _balances[account];\n    }\n\n    /**\n     * @dev See {IERC20-transfer}.\n     *\n     * Requirements:\n     *\n     * - `recipient` cannot be the zero address.\n     * - the caller must have a balance of at least `amount`.\n     */\n    function transfer(address recipient, uint256 amount) public virtual override(ERC20, IERC20) returns (bool) {\n        _transfer(_msgSender(), recipient, amount);\n        return true;\n    }\n    \n    /**\n     * @dev See {IERC20-allowance}.\n     */\n    function allowance(address owner, address spender) public view virtual override(ERC20, IERC20) returns (uint256) {\n        return _allowances[owner][spender];\n    }\n\n    /**\n     * @dev See {IERC20-approve}.\n     *\n     * Requirements:\n     *\n     * - `spender` cannot be the zero address.\n     */\n    function approve(address spender, uint256 amount) public virtual override(ERC20, IERC20) returns (bool) {\n        _approve(_msgSender(), spender, amount);\n        return true;\n    }\n\n    /**\n     * @dev See {IERC20-transferFrom}.\n     *\n     * Emits an {Approval} event indicating the updated allowance. This is not\n     * required by the EIP. See the note at the beginning of {ERC20}.\n     *\n     * Requirements:\n     *\n     * - `sender` and `recipient` cannot be the zero address.\n     * - `sender` must have a balance of at least `amount`.\n     * - the caller must have allowance for ``sender``'s tokens of at least\n     * `amount`.\n     */\n    function transferFrom(\n        address sender,\n        address recipient,\n        uint256 amount\n    ) public virtual override(ERC20, IERC20) returns (bool) {\n        _transfer(sender, recipient, amount);\n\n        uint256 currentAllowance = _allowances[sender][_msgSender()];\n        require(currentAllowance >= amount, \"ERC20: transfer amount exceeds allowance\");\n        unchecked {\n            _approve(sender, _msgSender(), currentAllowance - amount);\n        }\n\n        return true;\n    }\n\n    /**\n     * @dev Atomically increases the allowance granted to `spender` by the caller.\n     *\n     * This is an alternative to {approve} that can be used as a mitigation for\n     * problems described in {IERC20-approve}.\n     *\n     * Emits an {Approval} event indicating the updated allowance.\n     *\n     * Requirements:\n     *\n     * - `spender` cannot be the zero address.\n     */\n    function increaseAllowance(address spender, uint256 addedValue) public override virtual returns (bool) {\n        _approve(_msgSender(), spender, _allowances[_msgSender()][spender] + addedValue);\n        return true;\n    }\n\n    /**\n     * @dev Atomically decreases the allowance granted to `spender` by the caller.\n     *\n     * This is an alternative to {approve} that can be used as a mitigation for\n     * problems described in {IERC20-approve}.\n     *\n     * Emits an {Approval} event indicating the updated allowance.\n     *\n     * Requirements:\n     *\n     * - `spender` cannot be the zero address.\n     * - `spender` must have allowance for the caller of at least\n     * `subtractedValue`.\n     */\n    function decreaseAllowance(address spender, uint256 subtractedValue) public override virtual returns (bool) {\n        uint256 currentAllowance = _allowances[_msgSender()][spender];\n        require(currentAllowance >= subtractedValue, \"ERC20: decreased allowance below zero\");\n        unchecked {\n            _approve(_msgSender(), spender, currentAllowance - subtractedValue);\n        }\n\n        return true;\n    }\n\n    /**\n     * @dev Moves `amount` of tokens from `sender` to `recipient`.\n     *\n     * This internal function is equivalent to {transfer}, and can be used to\n     * e.g. implement automatic token fees, slashing mechanisms, etc.\n     *\n     * Emits a {Transfer} event.\n     *\n     * Requirements:\n     *\n     * - `sender` cannot be the zero address.\n     * - `recipient` cannot be the zero address.\n     * - `sender` must have a balance of at least `amount`.\n     */\n    function _transfer(\n        address sender,\n        address recipient,\n        uint256 amount\n    ) internal override virtual {\n        // Vrifie que l'expditeur sender est valide / renseign\n        require(sender != address(0), \"ERC20: transfer from the zero address\");\n        // Vrifie que le destinataire recipient est valide / renseign\n        require(recipient != address(0), \"ERC20: transfer to the zero address\");\n\n        // Appel de fonction pour enregistrer l'tat avant transfert (snapshot)\n        _beforeTokenTransfer(sender, recipient, amount);\n\n        // Enregistre le solde courant de l'expditeur sender\n        uint256 senderBalance = _balances[sender];\n        // Vrifie que le solde courant de l'expditeur sender permet la transfert du montant amount\n        require(senderBalance >= amount, \"ERC20: transfer amount exceeds balance\");\n\n        // Dfalque le montant amount transfr sur solde courant de l'expditeur sender\n        unchecked {\n            _balances[sender] = senderBalance - amount;\n        }\n        // Crdite le montant amount transfr au solde courant du destinataire recipient\n        _balances[recipient] += amount;\n\n        emit Transfer(sender, recipient, amount);\n    }\n    \n    /** @dev Creates `amount` tokens and assigns them to `account`, increasing\n     * the total supply.\n     *\n     * Emits a {Transfer} event with `from` set to the zero address.\n     *\n     * Requirements:\n     *\n     * - `account` cannot be the zero address.\n     */\n    function _mint(address account, uint256 amount) internal override virtual {\n        require(account != address(0), \"ERC20: mint to the zero address\");\n\n        _beforeTokenTransfer(address(0), account, amount);\n\n        _totalSupply += amount;\n        _balances[account] += amount;\n        emit Transfer(address(0), account, amount);\n    }\n\n    /**\n     * @dev Destroys `amount` tokens from `account`, reducing the\n     * total supply.\n     *\n     * Emits a {Transfer} event with `to` set to the zero address.\n     *\n     * Requirements:\n     *\n     * - `account` cannot be the zero address.\n     * - `account` must have at least `amount` tokens.\n     */\n    function _burn(address account, uint256 amount) internal override virtual {\n        require(account != address(0), \"ERC20: burn from the zero address\");\n\n        _beforeTokenTransfer(account, address(0), amount);\n\n        uint256 accountBalance = _balances[account];\n        require(accountBalance >= amount, \"ERC20: burn amount exceeds balance\");\n        unchecked {\n            _balances[account] = accountBalance - amount;\n        }\n        _totalSupply -= amount;\n\n        emit Transfer(account, address(0), amount);\n    }\n\n    /**\n     * @dev Sets `amount` as the allowance of `spender` over the `owner` s tokens.\n     *\n     * This internal function is equivalent to `approve`, and can be used to\n     * e.g. set automatic allowances for certain subsystems, etc.\n     *\n     * Emits an {Approval} event.\n     *\n     * Requirements:\n     *\n     * - `owner` cannot be the zero address.\n     * - `spender` cannot be the zero address.\n     */\n    function _approve(\n        address owner,\n        address spender,\n        uint256 amount\n    ) internal override virtual {\n        require(owner != address(0), \"ERC20: approve from the zero address\");\n        require(spender != address(0), \"ERC20: approve to the zero address\");\n\n        _allowances[owner][spender] = amount;\n        emit Approval(owner, spender, amount);\n    }\n\n}",
  "sourcePath": "/home/ubuntu/Projects/smartportfolio/contracts/IOToken.sol",
  "compiler": {
    "name": "solc",
    "version": "0.8.4+commit.c7e474f2.Emscripten.clang"
  },
  "schemaVersion": "3.4.1",
  "updatedAt": "2021-07-29T12:38:17.760Z",
  "networkType": "ethereum",
  "devdoc": {
    "kind": "dev",
    "methods": {
      "allowance(address,address)": {
        "details": "See {IERC20-allowance}."
      },
      "approve(address,uint256)": {
        "details": "See {IERC20-approve}. Requirements: - `spender` cannot be the zero address."
      },
      "balanceOf(address)": {
        "details": "See {IERC20-balanceOf}."
      },
      "balanceOfAt(address,uint256)": {
        "details": "Retrieves the balance of `account` at the time `snapshotId` was created."
      },
      "burn(uint256)": {
        "details": "Destroys `amount` tokens from the caller. See {ERC20-_burn}."
      },
      "burnFrom(address,uint256)": {
        "details": "Destroys `amount` tokens from `account`, deducting from the caller's allowance. See {ERC20-_burn} and {ERC20-allowance}. Requirements: - the caller must have allowance for ``accounts``'s tokens of at least `amount`."
      },
      "constructor": {
        "details": "Sets the values for {name} and {symbol}. The default value of {decimals} is 18. To select a different value for {decimals} you should overload it. All two of these values are immutable: they can only be set once during construction."
      },
      "decimals()": {
        "details": "Returns the number of decimals used to get its user representation. For example, if `decimals` equals `2`, a balance of `505` tokens should be displayed to a user as `5,05` (`505 / 10 ** 2`). Tokens usually opt for a value of 18, imitating the relationship between Ether and Wei. This is the value {ERC20} uses, unless this function is overridden; NOTE: This information is only used for _display_ purposes: it in no way affects any of the arithmetic of the contract, including {IERC20-balanceOf} and {IERC20-transfer}."
      },
      "decreaseAllowance(address,uint256)": {
        "details": "Atomically decreases the allowance granted to `spender` by the caller. This is an alternative to {approve} that can be used as a mitigation for problems described in {IERC20-approve}. Emits an {Approval} event indicating the updated allowance. Requirements: - `spender` cannot be the zero address. - `spender` must have allowance for the caller of at least `subtractedValue`."
      },
      "increaseAllowance(address,uint256)": {
        "details": "Atomically increases the allowance granted to `spender` by the caller. This is an alternative to {approve} that can be used as a mitigation for problems described in {IERC20-approve}. Emits an {Approval} event indicating the updated allowance. Requirements: - `spender` cannot be the zero address."
      },
      "name()": {
        "details": "Returns the name of the token."
      },
      "owner()": {
        "details": "Returns the address of the current owner."
      },
      "paused()": {
        "details": "Returns true if the contract is paused, and false otherwise."
      },
      "renounceOwnership()": {
        "details": "Leaves the contract without owner. It will not be possible to call `onlyOwner` functions anymore. Can only be called by the current owner. NOTE: Renouncing ownership will leave the contract without an owner, thereby removing any functionality that is only available to the owner."
      },
      "symbol()": {
        "details": "Returns the symbol of the token, usually a shorter version of the name."
      },
      "totalSupply()": {
        "details": "See {IERC20-totalSupply}."
      },
      "totalSupplyAt(uint256)": {
        "details": "Retrieves the total supply at the time `snapshotId` was created."
      },
      "transfer(address,uint256)": {
        "details": "See {IERC20-transfer}. Requirements: - `recipient` cannot be the zero address. - the caller must have a balance of at least `amount`."
      },
      "transferFrom(address,address,uint256)": {
        "details": "See {IERC20-transferFrom}. Emits an {Approval} event indicating the updated allowance. This is not required by the EIP. See the note at the beginning of {ERC20}. Requirements: - `sender` and `recipient` cannot be the zero address. - `sender` must have a balance of at least `amount`. - the caller must have allowance for ``sender``'s tokens of at least `amount`."
      },
      "transferOwnership(address)": {
        "details": "Transfers ownership of the contract to a new account (`newOwner`). Can only be called by the current owner."
      }
    },
    "version": 1
  },
  "userdoc": {
    "kind": "user",
    "methods": {},
    "notice": "Implementation of the {IERC20} interface. This implementation is agnostic to the way tokens are created. This means that a supply mechanism has to be added in a derived contract using {_mint}. For a generic mechanism see {ERC20PresetMinterPauser}. TIP: For a detailed writeup see our guide https://forum.zeppelin.solutions/t/how-to-implement-erc20-supply-mechanisms/226[How to implement supply mechanisms]. We have followed general OpenZeppelin guidelines: functions revert instead of returning `false` on failure. This behavior is nonetheless conventional and does not conflict with the expectations of ERC20 applications. Additionally, an {Approval} event is emitted on calls to {transferFrom}. This allows applications to reconstruct the allowance for all accounts just by listening to said events. Other implementations of the EIP may not emit these events, as it isn't required by the specification. Finally, the non-standard {decreaseAllowance} and {increaseAllowance} functions have been added to mitigate the well-known issues around setting allowances. See {IERC20-approve}.",
    "version": 1
  }
}